:100000000C942A000C9447000C9447000C94470071
:100010000C9447000C9447000C9447000C94470044
:100020000C9447000C9447000C9447000C94470034
:100030000C9447000C9447000C9447000C94470024
:100040000C9447000C9447000C9447000C94470014
:100050000C94470011241FBECFE5D8E0DEBFCDBF12
:1000600011E0A0E6B0E0ECE6F1E202C005900D92EE
:10007000A634B107D9F724E0A6E4B1E001C01D928F
:10008000A33EB207E1F70E94E5030C94B4100C9470
:10009000000098B3282F207F9F70922B98BBC298A6
:1000A000C39AEFE8F1E03197F1F700C00000C39880
:1000B000EFEAF4E03197F1F700C0000028B3F0E177
:1000C0008F9FC0011124922F9F70892B88BBC39AE8
:1000D0008FEA94E00197F1F700C00000C3980895FB
:1000E00098B3282F207F9F70922B98BBC29AC39AF7
:1000F000EFE1F3E03197F1F700C00000C398EFE1C2
:10010000F3E03197F1F700C0000028B3F0E18F9FD2
:10011000C0011124922F9F70892B88BBC39A8FE155
:1001200093E00197F1F700C00000C39808958CEFA9
:1001300087BBC3982FEF83EC99E02150804090401B
:10014000E1F700C0000083E30E9449002FEF89EF30
:1001500090E0215080409040E1F700C0000082E331
:100160000E9449002FEF89EF90E02150804090409D
:10017000E1F700C0000088E20E9449002FEF89EFFC
:1001800090E0215080409040E1F700C000008CE0FA
:100190000E9449002FEF89EF90E02150804090406D
:1001A000E1F700C0000081E00E9449002FEF89EFD5
:1001B00090E0215080409040E1F700C00000089599
:1001C00081E00E9449008FE39FE10197F1F700C0B1
:1001D000000008950F931F93CF93FC018081882323
:1001E00079F08F01C0E00E947000CF5F85E38A95AF
:1001F000F1F70000F801EC0FF11D80818111F3CFC0
:10020000CF911F910F910895CF93DF9390E060E11C
:1002100077E20E948C10EC0180E3860F0E94700050
:10022000CE01992768EE73E00E948C10D82F80E3EE
:10023000860F0E947000C9E2DC9FC12D1124C29577
:10024000CF7080E38C0F0E94700084E6C89FD019A5
:100250001124CDECDC9FC12D1124C695C695C69501
:1002600080E38C0F0E947000CC0F8C2F880F880FBA
:10027000C80F8D2F8C1B805D0E947000DF91CF9185
:10028000089580E18ABB8FEE8BBB8FEF81BB12BAE2
:10029000089528E833E090E040E011C0DF011197B5
:1002A0009C93808312971C9211961C928F5F3A96B2
:1002B0008730A1F72A5B3F4F9F5F953019F0F90116
:1002C000842FECCF089580916000882391F090E016
:1002D000E1EDF2E022E0228323838230910548F0B1
:1002E000248723E02587039720F082E0868B84E033
:1002F000878B08958CE084BBAA9A2FEF87E893E15F
:10030000215080409040E1F700C00000AA98089575
:1003100081EA8FBD81E08EBD08950E9488011BBCDB
:100320001ABC19BC18BC12BA0895CF93C82F0E94EA
:100330008D010E948801C230D1F028F4CC2349F00D
:10034000C13071F031C0C43001F1C0F0C53029F1C5
:100350002BC01BBC1ABC86E990E099BD88BD24C0A7
:1003600086E990E09BBD8ABD19BC18BC1DC08AEA15
:1003700090E09BBD8ABD99BD88BD16C01BBC1ABC50
:1003800019BC18BC80EC82BB0FC01BBC1ABC8FEF21
:1003900090E099BD88BD979A07C08FEF90E09BBD14
:1003A0008ABD19BC18BC969ACF910895CF93C82FD7
:1003B0000E948D01C23011F4909A03C0C33009F439
:1003C000919ACF910895CF93C82F0E948D01C2308A
:1003D00011F4929A03C0C33009F4939ACF9108950F
:1003E0000E948D01809162008E3431F4809153011E
:1003F0008F5F8093530117C0853431F4809154018D
:100400008150809354010FC0873531F4809154019D
:100410008F5F8093540107C0833529F48091530185
:1004200081508093530180914F018F5F80934F01E2
:100430000E947A01089589B3807E803E69F480919C
:100440004D01811109C081E080934D0180914F01E0
:100450008F5F80934F01089589B3807E803E41F481
:1004600080914D01813021F483E00E94950108952F
:1004700083E00E9495010895CF93C82F0E948D01BB
:100480002FEF81EE94E0215080409040E1F700C0D2
:100490000000C11142C082E00E9495012FEF80E46C
:1004A0009AE0215080409040E1F700C000000E9497
:1004B0008D012FEF81EE94E0215080409040E1F7D4
:1004C00000C0000084E00E9495012FEF80E192E1DE
:1004D000215080409040E1F700C000000E948D0153
:1004E000809162008E3449F018F4853451F059C07F
:1004F000833579F0873549F054C087E580936200F1
:1005000050C08EE4809362004CC083E5809362000B
:1005100048C085E48093620044C0C13009F041C006
:1005200082E00E9495012FEF80E49AE02150804004
:100530009040E1F700C000000E948D012FEF81EE96
:1005400094E0215080409040E1F700C0000085E039
:100550000E9495012FEF80E192E121508040904070
:10056000E1F700C000000E948D01809162008E348E
:1005700049F018F4853451F014C0833579F087358B
:1005800049F00FC085E4809362000BC083E580933F
:10059000620007C08EE48093620003C087E5809309
:1005A0006200CF9108950E948D012FEF81EE94E0BB
:1005B000215080409040E1F700C0000082E00E949E
:1005C00095012FEF80E49AE0215080409040E1F7C0
:1005D00000C000000E948D012FEF81EE94E02150B9
:1005E00080409040E1F700C0000084E00E94950147
:1005F0002FEF83E391E2215080409040E1F700C06B
:1006000000000E948D0189B3807E803E19F084E055
:100610000E9495012FEF81EE94E0215080409040A0
:10062000E1F700C000000E948D01809162008E34CD
:1006300049F018F4853451F014C0833579F08735CA
:1006400049F00FC083E5809362000BC087E580937B
:10065000620007C085E48093620003C08EE480934B
:100660006200809146018F5F8093460108950F9349
:100670001F93CF93DF93CDB7DEB72A970FB6F894C9
:10068000DEBF0FBECDBF09831A832B833C834D830E
:100690005E836F83788789879A8720914901822FAB
:1006A00090E0DC01AA0FBB1F880F991F880F991FCC
:1006B000880F991FA80FB91FA151BD4F8AE0FE01F5
:1006C000319601900D928A95E1F72F5F20934901B1
:1006D0002A960FB6F894DEBF0FBECDBFDF91CF9143
:1006E0001F910F910895209148012F5F2093480199
:1006F00030E021503109F901EE0FFF1F220F331FA7
:10070000220F331F220F331FE20FF31FE151FD4F62
:100710002AE0DC0101900D922A95E1F708956230FC
:1007200049F52091470190E0DC01AA0FBB1F880F1B
:10073000991F880F991F880F991FA80FB91FAB5ACF
:10074000BE4F822F90E00197FC01EE0FFF1F880F34
:10075000991F880F991F880F991FE80FF91FEB5AEF
:10076000FE4F8AE001900D928A95E1F72150209387
:1007700047010895633041F52091600090E0DC016D
:10078000AA0FBB1F880F991F880F991F880F991FE9
:10079000A80FB91FAF52BD4F822F90E00197FC0107
:1007A000EE0FFF1F880F991F880F991F880F991F41
:1007B000E80FF91FEF52FD4F8AE001900D928A95E4
:1007C000E1F7215020936000089580914A01811142
:1007D00077C00E9497000E9441010E94490180E871
:1007E0000E94490083E690E00E94EA0080EC0E94AB
:1007F000490084E790E00E94EA002FEF83ED90E348
:10080000215080409040E1F700C000000E94E000CD
:1008100083E890E00E94EA0080EC0E94490082E9AF
:1008200090E00E94EA00EFEFF3ED20E3E150F040AA
:100830002040E1F700C00000C2E005E813E0D1E08D
:1008400099B3907E903EE1F70E947A010E94E00009
:100850008DE990E00E94EA008FEF93EDE0E3815094
:100860009040E040E1F700C00000C0934E018C2FA3
:100870000E94C80610924E0110925401109253012A
:10088000F801D0830E94E0008EEA90E00E94EA0026
:10089000FFEF23ED80E3F15020408040E1F700C0FE
:1008A00000008C2F0E9495019FEFE1EEF4E0915043
:1008B000E040F040E1F700C000000E947507C0CFA3
:1008C0000E94E0008FEB90E00E94EA002FEF83EDA2
:1008D00090E3215080409040E1F700C0000081E0AB
:1008E00080934E010E9463010E94390F0E94F10F14
:1008F0000E94390F0E94F10F0E94390F0E94F10FE0
:1009000001E020E040E060915301809154010E9499
:10091000540B0E948D010E947A01EFEFF1EE24E06A
:10092000E150F0402040E1F700C000000E947A0151
:100930008FEF91EEE4E081509040E040E1F700C09D
:1009400000000E947A010E94E0008CEC90E00E947E
:10095000EA00FFCF83E00E9495012FEF81EE94E043
:10096000215080409040E1F700C000000E948D01BE
:100970002FEF81EE94E0215080409040E1F700C0DD
:10098000000089B3807E803E39F083E00E949501AB
:1009900089B3807E803EC9F70E948D012FEF81EEE2
:1009A00094E0215080409040E1F700C0000082E0D8
:1009B0000E9495012FEF80E49AE021508040904002
:1009C000E1F700C000000E948D01809162008E342A
:1009D00031F48091530181508093530117C08534C5
:1009E00031F4809154018F5F809354010FC087359B
:1009F00031F48091540181508093540107C08335B4
:100A000029F4809153018F5F8093530181E080939B
:100A10004D0180914E01811140C08091470183308A
:100A2000D0F50E947507809147018330B1F5809120
:100A30004E01811132C081E080934A0180934E01C2
:100A40000E94E0008DED90E00E94EA0081EC0E949F
:100A500049008BEE90E00E94EA0088E20E9470005C
:100A600080915401805D0E9470008CE20E947000B1
:100A700080915301805D0E94700089E20E947000A5
:100A80002FEF87EA91E6215080409040E1F700C0C7
:100A900000000E94E503833071F2089581E08093A5
:100AA0004C0180914E0181117EC08091510190E0F6
:100AB00040915401FC01EE0FFF1F880F991F880F12
:100AC000991F880F991FE80FF91FEB5AFE4F4283B9
:100AD00020915301238330E0C901880F991F220F11
:100AE000331F220F331F220F331F820F931F26E461
:100AF000429F800D911D1124FC01EB57FC4F22E019
:100B00002083DC01AD58BE4F2C938FEF81830E9470
:100B1000E0008FEE90E00E94EA00809151018F5C2E
:100B20000E94700085EF90E00E94EA0088E20E9437
:100B300070008091510190E0FC01EE0FFF1F880FC3
:100B4000991F880F991F880F991FE80FF91FEB5AFB
:100B5000FE4F8281805D0E9470008CE20E947000D6
:100B60008091510190E0FC01EE0FFF1F880F991F4B
:100B7000880F991F880F991FE80FF91FEB5AFE4F36
:100B80008381805D0E94700089E20E9470008091E4
:100B900061008F5F80936100809147018F5F809338
:100BA00047010E94AA04089589B38770863091F4A2
:100BB00080914C01811144C080914B0181113BC057
:100BC0000E948D010E94F001109251010E944E0579
:100BD00081E0089589B38770843099F480914C0145
:100BE000811131C080914B0181112FC00E948D0174
:100BF0000E94F00181E0809351010E944E0581E046
:100C0000089589B3877099F480914C0181110FC0C8
:100C100080914B0181110BC00E948D010E94F00157
:100C200082E0809351010E944E0581E00895109268
:100C30004C0180E0089589B38770843041F405C089
:100C400089B389B3F4CF89B3F2CF89B3F0CF89B335
:100C50008770F1F2ECCF0E94D405813029F40E9414
:100C60008D010E947A01089589B3807E803E09F04B
:100C700053C080914D0181114FC081E080934D019F
:100C800080914F018F5F80934F01809162008E347D
:100C900031F4809153018F5F8093530117C08534E5
:100CA00031F4809154018150809354010FC08735F5
:100CB00031F4809154018F5F8093540107C08335D4
:100CC00029F48091530181508093530180914E010A
:100CD00081115DC0209154018091530190E0FC018D
:100CE000EE0FFF1F880F991F880F991F880F991FFC
:100CF000E80FF91F86E4289FE00DF11D1124EB5742
:100D0000FC4F81E080831182809161008F5F80932E
:100D100061000E947507089589B3807E803E41F48A
:100D200080914D01813021F482E00E949501089567
:100D300089B3807E803431F482E00E949501109264
:100D40004D01089589B3807E803C21F480E00E94AB
:100D50009501089589B3807E803821F480E00E9457
:100D60009501089589B3807E803621F481E00E9448
:100D70009501089589B3807E803221F481E00E943C
:100D80009501089589B3807E11F40E948D01089524
:100D900010924F01823039F40E942B0680914F014E
:100DA0008823D1F30895833031F40E941B0280918F
:100DB0004F018823D1F30895481305C0261303C0BB
:100DC0000E948D010895621718F5809162008E349B
:100DD00021F482E00E94C8060895853439F480E049
:100DE0000E943C0282E00E94C8060895873539F4CB
:100DF00081E00E943C0282E00E94C806089583358B
:100E000009F072C00E94D30282E00E94C8060895D1
:100E1000261718F5809162008E3431F40E94D302B7
:100E200082E00E94C8060895853439F481E00E946A
:100E30003C0282E00E94C8060895873539F480E0BC
:100E40000E943C0282E00E94C8060895833509F0A2
:100E50004BC082E00E94C8060895841710F5809167
:100E600062008E3439F480E00E943C0282E00E94ED
:100E7000C8060895853431F40E94D30282E00E94AE
:100E8000C8060895873521F482E00E94C8060895B7
:100E9000833551F581E00E943C0282E00E94C80641
:100EA0000895481708F5809162008E3439F481E086
:100EB0000E943C0282E00E94C8060895853421F415
:100EC00082E00E94C8060895873531F40E94D3025B
:100ED00082E00E94C8060895833531F480E00E94C4
:100EE0003C0282E00E94C80608958F929F92AF92C2
:100EF000BF92CF92DF92EF92FF920F931F93CF9307
:100F0000DF932091540130915301E22FF0E0DF0193
:100F10001197A530B105A0F5832F90E0EC01CC0F1F
:100F2000DD1FAC01440F551F440F551F440F551FC3
:100F3000C40FD51F66E46A9FA0016B9F500D11245A
:100F4000C40FD51FCB57DC4F4881411119C0AC01EC
:100F5000440F551F880F991F880F991F880F991FDD
:100F6000840F951F46E44A9FE0014B9FD00D11244A
:100F70008C0F9D1FEC01CB57DC4F89818F5F8983DC
:100F8000832F90E0BC01615071096730710588F5CD
:100F9000AB01440F551F440F551F440F551FEB0164
:100FA000CC0FDD1FC40FD51F16E41E9FA0011F9F8D
:100FB000500D1124C40FD51FCB57DC4F4881411170
:100FC00018C0AB01440F551F440F551F440F551F48
:100FD000EB01CC0FDD1FC40FD51F1E9FA0011F9F6B
:100FE000500D1124C40FD51FCB57DC4F49814F5FE3
:100FF00049832430B8F58F010F5F1F4FAC01440FB8
:10100000551F440F551F440F551FEC01CC0FDD1F1A
:10101000C40FD51F0F2EF6E4FF2EF02DF09EA00179
:10102000F19E500D1124C40FD51FCB57DC4F4881C2
:10103000411118C0AC01440F551F440F551F440FF8
:10104000551FEC01CC0FDD1FC40FD51FF09EA00172
:10105000F19E500D1124C40FD51FCB57DC4F498191
:101060004F5F49833630C0F5AC014F5F5F4F8A0157
:10107000000F111FEA01CC0FDD1FCC0FDD1FCC0FBD
:10108000DD1FC00FD11F0F2EF6E4FF2EF02DFE9EA8
:101090008001FF9E100D1124C00FD11FCB57DC4FD4
:1010A000C881C11119C0EA01CC0FDD1F440F551FC3
:1010B000440F551F440F551F4C0F5D1F16E41E9F14
:1010C000E0011F9FD00D11244C0F5D1FEA01CB578B
:1010D000DC4F49814F5F49838F010F5F1F4F053000
:1010E0001105ECF5AC01440F551F440F551F440F7B
:1010F000551FEC01CC0FDD1FC40FD51F0F2EF6E4DA
:10110000FF2EF02DF09EA001F19E500D1124C40F72
:10111000D51FCB57DC4F4981442321F1AC01440F4B
:10112000551F440F551F440F551FEC01CC0FDD1FF9
:10113000C40FD51FF09EA001F19E500D1124C40FC5
:10114000D51FCB57DC4F488141110FC0FF24F394CA
:10115000F20E41E040934601BB24B39408C0F22E46
:10116000B12C05C0F22EB12C02C0F22EB12C772387
:101170000CF43FC0AB01440F551F440F551F440FE3
:10118000551FEB01CC0FDD1FC40FD51F0F2EF6E44A
:10119000EF2EF02DEE9EA001EF9E500D1124C40FF6
:1011A000D51FCB57DC4F4981442329F1AB01440FB4
:1011B000551F440F551F440F551FEB01CC0FDD1F6A
:1011C000C40FD51FEE9EA001EF9E500D1124C40F39
:1011D000D51FCB57DC4F488141110FC0EE24EA9454
:1011E000E30E41E040934601F22E6894BB24B1F82F
:1011F00005C0E32E03C0E32E01C0E32EBB230CF495
:1012000045C0EC01CC0FDD1FCC0FDD1FCC0FDD1F67
:10121000AC01440F551FC40FD51F0F2EF6E4DF2E6F
:10122000F02DDA9EA001DB9E500D1124C40FD51FB6
:10123000CB57DC4F4981442349F1EC01CC0FDD1F32
:10124000CC0FDD1FCC0FDD1FAC01440F551FC40FA9
:10125000D51FDA9EA001DB9E500D1124C40FD51FAF
:10126000CB57DC4F4881411111C0FF24FA94F20E94
:1012700041E0409346014C014FEF841A940AC7E0C5
:101280008C1691040CF4DEC1E32EFBC14C01DFEFA0
:101290008D1A9D0A47E0841691040CF0D0C16401B8
:1012A000CC0CDD1CCC0CDD1CCC0CDD1CA401440FD3
:1012B000551FC40ED51E0F2EF6E4AF2EF02DAE9E98
:1012C000A001AF9E500D11244C0D5D1D4B575C4F7E
:1012D000EA014981442309F4A9C105C0E32E0F2E78
:1012E000F3E0BF2EF02D6401CC0CDD1CCC0CDD1C1A
:1012F000CC0CDD1CA401440F551FC40ED51E0F2EAF
:10130000F6E4AF2EF02DAE9EA001AF9E500D11243D
:101310004C0D5D1D4B575C4FEA014881411186C160
:10132000EE24E394E30E81E080934601F22EA9C1FE
:10133000EE24E394E30EF22EBB230CF16C01CC0CF3
:10134000DD1CCC0CDD1CCC0CDD1CAC01440F551F8E
:10135000C40ED51E0F2EF6E4BF2EF02DBA9EA001AE
:10136000BB9E500D11244C0D5D1D4B575C4FEA0187
:101370004881413021F4FF24FA94F20EE32E7723C2
:101380000CF16B01CC0CDD1CCC0CDD1CCC0CDD1C81
:10139000AB01440F551FC40ED51E0F2EF6E4BF2E11
:1013A000F02DBE9EA001BF9E500D11244C0D5D1D61
:1013B0004B575C4FEA014881413021F4EE24EA9416
:1013C000E30EF22E053011050CF56C01CC0CDD1C82
:1013D000CC0CDD1CCC0CDD1CAC01440F551FC40E25
:1013E000D51E0F2EF6E4BF2EF02DB09EA001B19EAB
:1013F000500D11244C0D5D1D4B575C4FEA01488187
:10140000413021F4FF24F394F20EE32E6C01CC0C56
:10141000DD1CCC0CDD1CCC0CDD1CAC01440F551FBD
:10142000C40ED51E0F2EF6E4BF2EF02DBE9EA001D9
:10143000BF9E500D11244C0D5D1D4B575C4F6894A1
:10144000DD24D1F8EA01D882409146014150409311
:101450004601453008F48AC040914E01411186C0D2
:1014600045E040934601053011050CF56C01CC0CAC
:10147000DD1CCC0CDD1CCC0CDD1CAC01440F551F5D
:10148000C40ED51E0F2EF6E4BF2EF02DB09EA00187
:10149000B19E500D11244C0D5D1D4B575C4FEA0160
:1014A0004881413021F4FF24F394F20EE32E772398
:1014B000ECF0AB01440F551F660F771F660F771FC7
:1014C000660F771F640F751F16E41E9FA0011F9FF4
:1014D000500D1124640F751F6B577C4FEB01488131
:1014E000413021F4EE24EA94E30EF22EBB23ECF01B
:1014F000AC01440F551F880F991F880F991F880F43
:10150000991F840F951F66E46A9FA0016B9F500D81
:101510001124DC01A40FB51FAB57BC4F8C91813057
:1015200021F4FF24FA94F20EE32ED7E08D169104F5
:10153000ECF4C401880F991FE401CC0FDD1FCC0F20
:10154000DD1FCC0FDD1FC80FD91F46E44E9FC00121
:101550004F9F900D1124C80FD91FCB57DC4F8881A6
:10156000813021F4EE24E394E30EF22E0E94E00099
:1015700080EC0E94490088E20E9470008091540132
:10158000805D0E9470008CE20E9470008091530187
:10159000805D0E94700089E20E94700089EF90E0F7
:1015A0000E94EA0083E491E00E94EA0080E38F0D4C
:1015B0000E9470008CE20E94700080E38E0D0E94F9
:1015C000700089E20E94700086E80E9449008091C4
:1015D00061000E94040180914E01811158C02E2D9E
:1015E0004F2D60915301809154010E94DC064FC041
:1015F000409146014F5F409346014AE0489D60019B
:10160000499DD00C11240F2EF6E4BF2EF02DBE9E66
:10161000A001BF9E500D11244C0D5D1D4B575C4F1A
:10162000EA014881413009F087CE82CEBB2001F328
:101630000BCF409146014F5F409346017DCEBB20CA
:10164000C1F302CF6401CC0CDD1CCC0CDD1CCC0C36
:10165000DD1CA401440F551F4C0D5D1D0F2EF6E43B
:10166000EF2EF02DEE9E6001EF9ED00C11244C0D5C
:101670005D1D4B575C4FEA01498141112FCEE32E8E
:10168000E3CE809146018150809346016FCFDF9178
:10169000CF911F910F91FF90EF90DF90CF90BF906F
:1016A000AF909F908F9008952F923F924F925F92AC
:1016B0006F927F928F929F92AF92BF92CF92DF9262
:1016C000EF92FF920F931F93CF93DF93CDB7DEB7C7
:1016D000C558D1090FB6F894DEBF0FBECDBF342E6A
:1016E000422ECB57DF4F0883C558D04048E751E022
:1016F00020E070E034E111C0DF0111973C931082CB
:1017000012972C9311969C939F5F3A969730A1F76E
:101710002F5F4A5B5F4F253019F0FA01972FECCF0E
:1017200070E0FB01EE0FFF1F660F771F660F771F3C
:10173000660F771FE60FF71F26E4829FE00DF11D6D
:101740001124ED58FE4F148281E0582F85831092AA
:10175000490110924801008111812281338140E0CA
:1017600066817781808591850E9437030F2EF6E48C
:10177000DF2EF02D2224239497C2CE0101960E94E1
:101780007303CB805C80E52CF12C57013FEFA31A4B
:10179000B30A47E0A416B1040CF09DC0C501880F40
:1017A000991F880F991F880F991FF501EE0FFF1FD2
:1017B000E80FF91F6C2C712CDC9CE00DF11D11243D
:1017C000ED58FE4F8581811186C0C501880F991F94
:1017D000880F991F880F991FF501EE0FFF1FE80F63
:1017E000F91FD69CC001D79C900D1124E80FF91F5A
:1017F000ED58FE4F8081833009F46DC080914B011C
:101800008130C9F4C501880F991F880F991F880F6F
:10181000991FF501EE0FFF1FE80FF91FD69CC001BD
:10182000D79C900D1124E80FF91FEB57FC4F8081D6
:10183000823009F450C0C501880F991F880F991F85
:10184000880F991F4501880C991C880E991ED69CFB
:10185000C001D79C900D1124CD57DF4F9983888309
:10186000C358D040880D991DFC01ED58FE4F4F0123
:101870000081118122813381448155816681778184
:10188000808591850E943703C701880F991F880FB3
:10189000991F880F991FF701EE0FFF1FE80FF91F1F
:1018A000CD57DF4F28813981C358D040E20FF31F55
:1018B000ED58FE4F84818F5FF40125829481891752
:1018C00050F4F40184838C2D90E097838683852DDA
:1018D00090E0918780878C2C912C3401F1E06F1A75
:1018E00071080AF499C0C701880F991F880F991FC2
:1018F000880F991FF701EE0FFF1FE80FF91FD69C05
:10190000C001D79C900D1124E80FF91FED58FE4F30
:101910008581811181C0C701880F991F880F991F88
:10192000880F991FF701EE0FFF1FE80FF91FD69CD4
:10193000C001D79C900D1124E80FF91FED58FE4F00
:101940008081833009F468C080914B018130C9F4F3
:10195000C701880F991F880F991F880F991FF701DA
:10196000EE0FFF1FE80FF91FD69CC001D79C900D0A
:101970001124E80FF91FEB57FC4F8081823009F4E6
:101980004BC09701220F331F220F331F220F331F2B
:10199000C701880F991FAC01420F531FCD57DF4F6E
:1019A00059834883C358D040D69C5001D79CB00C73
:1019B0001124CA018A0D9B1DFC01ED58FE4F5F01E9
:1019C0000081118122813381448155816681778133
:1019D000808591850E943703D89CF001D99CF00D39
:1019E0001124CD57DF4F28813981C358D040E20FF1
:1019F000F31FED58FE4F84818F5FF501258294819E
:101A0000891750F4F50184838C2D90E097838683A9
:101A1000852D90E0918780875701F1E0AF1AB108DA
:101A20000AF4A0C0C501880F991F880F991F880F5D
:101A3000991FF501EE0FFF1FE80FF91FD89CC00199
:101A4000D99C900D1124E80FF91FED58FE4F8581A8
:101A5000811188C0C501880F991F880F991F880FB1
:101A6000991FF501EE0FFF1FE80FF91FD89CC00169
:101A7000D99C900D1124E80FF91FED58FE4F80817D
:101A8000833009F46FC080914B018130C9F4C501E6
:101A9000880F991F880F991F880F991FF501EE0F66
:101AA000FF1FE80FF91FD89CC001D99C900D11248D
:101AB000E80FF91FEB57FC4F8081823009F452C0C8
:101AC000C501880F991F880F991F880F991F35012D
:101AD000660C771C680E791ED89C9001D99C300D3D
:101AE0001124CD57DF4F39832883C358D040C90113
:101AF000860D971DAC014D585E4F3A01FA010081E9
:101B0000118122813381448155816681778180856D
:101B100091850E943703C701880F991F880F991F6D
:101B2000880F991FF701EE0FFF1FE80FF91FCD5720
:101B3000DF4F28813981C358D040E20FF31FED58A1
:101B4000FE4F84818F5FF30125829481891750F4C1
:101B5000F30184838C2D90E097838683852D90E01C
:101B6000918780875401FFEFAF1ABF0A25E0A216C4
:101B7000B1040CF099C0C701880F991F880F991FF5
:101B8000880F991FF701EE0FFF1FE80FF91FDA9C6E
:101B9000C001DB9C900D1124E80FF91FED58FE4F9A
:101BA0008581811181C0C701880F991F880F991FF6
:101BB000880F991FF701EE0FFF1FE80FF91FDA9C3E
:101BC000C001DB9C900D1124E80FF91FED58FE4F6A
:101BD0008081833009F468C080914B018130C9F461
:101BE000C701880F991F880F991F880F991FF70148
:101BF000EE0FFF1FE80FF91FDA9CC001DB9C900D70
:101C00001124E80FF91FEB57FC4F8081823009F453
:101C10004BC09701220F331F220F331F220F331F98
:101C2000C701880F991FAC01420F531FCD57DF4FDB
:101C300059834883C358D040DA9C3001DB9C700C38
:101C40001124CA01860D971DFC01ED58FE4F3F017E
:101C500000811181228133814481558166817781A0
:101C6000808591850E943703D89CF001D99CF00DA6
:101C70001124CD57DF4F28813981C358D040E20F5E
:101C8000F31FED58FE4F84818F5FF301258294810D
:101C9000891750F4F30184838C2D90E09783868319
:101CA000852D90E09187808780914801823209F0EC
:101CB00064CD3D864E86842D90E0FC01EE0FFF1F23
:101CC000880F991F880F991F880F991FE80FF91F18
:101CD00026E4329EE00DF11D1124ED58FE4FF480F4
:101CE0008FEF8F0D833108F09DC0FF2009F49CC059
:101CF000DE01589690E09C01220F331F880F991F38
:101D0000880F991F880F991F820F931F8C0F9D1F9B
:101D1000829646E4512CF201EE0FFF1F440C551C35
:101D2000440C551C440C551CE40DF51D439DE00D61
:101D3000F11D1124BF016D587E4FFB0136809D01BE
:101D400021503109F9013082FB0140844C921A96EE
:101D5000A817B907F9F66AC0EF2C80EC0E94490079
:101D600088E20E947000CE2CD12C5601AA0CBB1C1C
:101D7000C601880F991F880F991F880F991FA80EF9
:101D8000B91E21E030E02C0F3D1FA20EB31EF5015D
:101D9000148580E3810F0E9470008CE20E94700025
:101DA000F501058580E3800F0E94700089E20E94A2
:101DB000700089EF90E00E94EA0083E491E00E94C5
:101DC000EA00F1E0CF1AD108C601880F991FCC0CA8
:101DD000DD1CCC0CDD1CCC0CDD1CC80ED91E21E09A
:101DE00030E02C0F3D1FC20ED31EF601B48480E3F9
:101DF0008B0D0E9470008CE20E947000F601D58469
:101E000080E38D0D0E94700089E20E9470002D2DEC
:101E10004B2D602F812F0E94DC06EA94E1109DCFAC
:101E20008F2D0DC084E10BC080E009C0CB57DF4F80
:101E3000F881C558D040F13009F48ECF8F2DCB57A3
:101E4000DF4F0FB6F894DEBF0FBECDBFDF91CF914D
:101E50001F910F91FF90EF90DF90CF90BF90AF90C8
:101E60009F908F907F906F905F904F903F902F90BA
:101E700008950F931F93CF93DF9310924B01E5E5E5
:101E8000F1E000E02381428160915301809154018F
:101E90000E94540BD82F80914701823020F110E02E
:101EA000C1E02C2F30E0F901EE0FFF1F220F331F8E
:101EB000220F331F220F331FE20FF31FEB5AFE4F87
:101EC00000E02381428160915301809154010E947E
:101ED000540B8D1710F4D82F1C2FCF5F9091470112
:101EE000C917F8F201C010E00E94E0008FEF90E007
:101EF0000E94EA0082E00E9495012FEF81EE94E0BB
:101F0000215080409040E1F700C000000E948D0108
:101F1000812F90E0FC01EE0FFF1F880F991F880FA3
:101F2000991F880F991FE80FF91FEB5AFE4F01E028
:101F30002381428160915301809154010E94540B8E
:101F40001093500162E0812F0E948F0382E00E9473
:101F5000E30180E80E94490080E191E00E94EA00EC
:101F60002FEF87EA91E6215080409040E1F700C0D2
:101F7000000082E00E94D6012FEF83ED90E3215014
:101F800080409040E1F700C0000081E080934B0169
:101F900082E00E94C806809162008E3431F4809104
:101FA000530181508093530117C0853431F48091DF
:101FB00054018F5F809354010FC0873531F48091B5
:101FC000540181508093540107C0833529F48091D6
:101FD00053018F5F80935301DF91CF911F910F9138
:101FE00008950F9380E80E94490081E291E00E94E9
:101FF000EA00809150018093520190E0FC01EE0FC5
:10200000FF1F880F991F880F991F880F991FE80FCE
:10201000F91FEF52FD4F01E023814281609153018E
:10202000809154010E94540B80915201282F30E07E
:10203000F901EE0FFF1F220F331F220F331F220F54
:10204000331FE20FF31FEF52FD4F238130E09281E7
:10205000F901EE0FFF1F220F331F220F331F220F34
:10206000331FE20FF31F26E4929FE00DF11D1124B0
:10207000ED58FE4F93E0908363E00E948F030E942F
:102080008D0183E00E9495018FEF93EC29E0815050
:1020900090402040E1F700C000000E94E00081E392
:1020A00091E00E94EA0080EC0E9449008EE391E0FA
:1020B0000E94EA0080915401805D0E9470008CE2D1
:1020C0000E94700080915301805D0E94700089E23F
:1020D0000E94700083E00E94D6018FEF99E628E10C
:1020E000815090402040E1F700C0000083E00E9452
:1020F000E3018FEF93ED20E3815090402040E1F722
:1021000000C000000E948D0110924B010E94AA04A1
:102110000E94E0000F91089597FB072E16F400949B
:1021200007D077FD09D00E94A01007FC05D03EF42F
:10213000909581959F4F0895709561957F4F089573
:10214000AA1BBB1B51E107C0AA1FBB1FA617B707DD
:1021500010F0A61BB70B881F991F5A95A9F78095F9
:0C2160009095BC01CD010895F894FFCFCC
:10216C0003014E57656C636F6D652048657461752E
:10217C0064612100506C6561736520576169742E30
:10218C002E2E00202043414E20494E464F544543AD
:10219C0048002020202020203230313600424F547D
:1021AC002040205374617274204E6F646500424C61
:1021BC004F434B20534541524348204D4F44002040
:1021CC0020534F4C5645204D4F4445005441534BE2
:1021DC0020434F4D504C455445442121004E4F5700
:1021EC002C20524F424F542049530061742000421E
:1021FC004C4F434B0020402000202D2D3E20004111
:10220C0070726F61636820746F20626C6F636B0017
:10221C00202020204772697070696E672020202072
:10222C0000202020417272616E67696E6720202049
:10223C0000202020506C6163696E672040002020D4
:06224C0020202028000004
:00000001FF
